{
  "contractName": "FormList",
  "abi": [
    {
      "constant": true,
      "inputs": [],
      "name": "formCount",
      "outputs": [
        {
          "name": "",
          "type": "uint256"
        }
      ],
      "payable": false,
      "stateMutability": "view",
      "type": "function",
      "signature": "0x146c1415"
    },
    {
      "constant": true,
      "inputs": [
        {
          "name": "",
          "type": "uint256"
        }
      ],
      "name": "forms",
      "outputs": [
        {
          "name": "id",
          "type": "uint256"
        },
        {
          "name": "content",
          "type": "string"
        },
        {
          "name": "completed",
          "type": "bool"
        }
      ],
      "payable": false,
      "stateMutability": "view",
      "type": "function",
      "signature": "0x18c864e3"
    },
    {
      "inputs": [],
      "payable": false,
      "stateMutability": "nonpayable",
      "type": "constructor",
      "signature": "constructor"
    },
    {
      "anonymous": false,
      "inputs": [
        {
          "indexed": false,
          "name": "id",
          "type": "uint256"
        },
        {
          "indexed": false,
          "name": "content",
          "type": "string"
        },
        {
          "indexed": false,
          "name": "completed",
          "type": "bool"
        }
      ],
      "name": "FormCreated",
      "type": "event",
      "signature": "0xeb40eb68ec8ff4b3dd395e0ac77efecbdc4feb3baec7d6c6f7fb0df3ac372fb6"
    },
    {
      "anonymous": false,
      "inputs": [
        {
          "indexed": false,
          "name": "id",
          "type": "uint256"
        },
        {
          "indexed": false,
          "name": "completed",
          "type": "bool"
        }
      ],
      "name": "FormCompleted",
      "type": "event",
      "signature": "0x49208603a02d033004f33bcede2506e937b6d43696a1b06b916df75b146abf49"
    },
    {
      "constant": false,
      "inputs": [
        {
          "name": "_content",
          "type": "string"
        }
      ],
      "name": "createForm",
      "outputs": [],
      "payable": false,
      "stateMutability": "nonpayable",
      "type": "function",
      "signature": "0x4f877e28"
    },
    {
      "constant": false,
      "inputs": [
        {
          "name": "_id",
          "type": "uint256"
        }
      ],
      "name": "toggleCompleted",
      "outputs": [],
      "payable": false,
      "stateMutability": "nonpayable",
      "type": "function",
      "signature": "0x455f5024"
    }
  ],
  "bytecode": "0x60806040526000805534801561001457600080fd5b50610089606060405190810160405280603381526020017f2745783a204d7568616d6d616420416c692c203637393534313130363535342c81526020017f2047656e6572616c20496e737572616e6365270000000000000000000000000081525061008e640100000000026401000000009004565b61024d565b60008054600190810180835560408051606081018252828152602080820187815282840187905293865284815291909420845181559151805192936100db939085019291909101906101b2565b5060408201518160020160006101000a81548160ff0219169083151502179055509050507feb40eb68ec8ff4b3dd395e0ac77efecbdc4feb3baec7d6c6f7fb0df3ac372fb6600054826000604051808481526020018060200183151515158152602001828103825284818151815260200191508051906020019080838360005b8381101561017357818101518382015260200161015b565b50505050905090810190601f1680156101a05780820380516001836020036101000a031916815260200191505b5094505050505060405180910390a150565b828054600181600116156101000203166002900490600052602060002090601f016020900481019282601f106101f357805160ff1916838001178555610220565b82800160010185558215610220579182015b82811115610220578251825591602001919060010190610205565b5061022c929150610230565b5090565b61024a91905b8082111561022c5760008155600101610236565b90565b6106448061025c6000396000f3fe6080604052600436106100615763ffffffff7c0100000000000000000000000000000000000000000000000000000000600035041663146c1415811461006657806318c864e31461008d578063455f5024146101415780634f877e281461016d575b600080fd5b34801561007257600080fd5b5061007b610220565b60408051918252519081900360200190f35b34801561009957600080fd5b506100b7600480360360208110156100b057600080fd5b5035610226565b604051808481526020018060200183151515158152602001828103825284818151815260200191508051906020019080838360005b838110156101045781810151838201526020016100ec565b50505050905090810190601f1680156101315780820380516001836020036101000a031916815260200191505b5094505050505060405180910390f35b34801561014d57600080fd5b5061016b6004803603602081101561016457600080fd5b50356102d5565b005b34801561017957600080fd5b5061016b6004803603602081101561019057600080fd5b8101906020810181356401000000008111156101ab57600080fd5b8201836020820111156101bd57600080fd5b803590602001918460018302840111640100000000831117156101df57600080fd5b91908080601f016020809104026020016040519081016040528093929190818152602001838380828437600092019190915250929550610435945050505050565b60005481565b600160208181526000928352604092839020805481840180548651600296821615610100026000190190911695909504601f810185900485028601850190965285855290949193929091908301828280156102c25780601f10610297576101008083540402835291602001916102c2565b820191906000526020600020905b8154815290600101906020018083116102a557829003601f168201915b5050506002909301549192505060ff1683565b6102dd610559565b60008281526001602081815260409283902083516060810185528154815281840180548651600296821615610100026000190190911695909504601f810185900485028601850190965285855290949193858401939092908301828280156103865780601f1061035b57610100808354040283529160200191610386565b820191906000526020600020905b81548152906001019060200180831161036957829003601f168201915b50505091835250506002919091015460ff161515602091820152604080830180511590526000858152600180845291902083518155838301518051949550859491936103d79385019291019061057d565b50604091820151600291909101805460ff1916911515919091179055818101518151848152901515602082015281517f49208603a02d033004f33bcede2506e937b6d43696a1b06b916df75b146abf49929181900390910190a15050565b60008054600190810180835560408051606081018252828152602080820187815282840187905293865284815291909420845181559151805192936104829390850192919091019061057d565b5060408201518160020160006101000a81548160ff0219169083151502179055509050507feb40eb68ec8ff4b3dd395e0ac77efecbdc4feb3baec7d6c6f7fb0df3ac372fb6600054826000604051808481526020018060200183151515158152602001828103825284818151815260200191508051906020019080838360005b8381101561051a578181015183820152602001610502565b50505050905090810190601f1680156105475780820380516001836020036101000a031916815260200191505b5094505050505060405180910390a150565b60606040519081016040528060008152602001606081526020016000151581525090565b828054600181600116156101000203166002900490600052602060002090601f016020900481019282601f106105be57805160ff19168380011785556105eb565b828001600101855582156105eb579182015b828111156105eb5782518255916020019190600101906105d0565b506105f79291506105fb565b5090565b61061591905b808211156105f75760008155600101610601565b9056fea165627a7a7230582035ace5663b01d7e48b97665734eb3339fc5b79524cadd6ec9293af7786a54cbc0029",
  "source": "// SPDX-License-Identifier: MIT\r\npragma solidity ^0.5.0;\r\n\r\ncontract FormList {\r\n  uint public formCount = 0;\r\n\r\n  struct Form {\r\n    uint id;\r\n    string content;\r\n    bool completed;\r\n  }\r\n\r\n  mapping(uint => Form) public forms;\r\n\r\n  event FormCreated(\r\n    uint id,\r\n    string content,\r\n    bool completed\r\n  );\r\n\r\n  event FormCompleted(\r\n    uint id,\r\n    bool completed\r\n  );\r\n\r\n  constructor() public {\r\n    createForm(\"'Ex: Muhammad Ali, 679541106554, General Insurance'\");\r\n  }\r\n\r\n  function createForm(string memory _content) public {\r\n    formCount ++;\r\n    forms[formCount] = Form(formCount, _content, false);\r\n    emit FormCreated(formCount, _content, false);\r\n  }\r\n\r\n  function toggleCompleted(uint _id) public {\r\n    Form memory _form = forms[_id];\r\n    _form.completed = !_form.completed;\r\n    forms[_id] = _form;\r\n    emit FormCompleted(_id, _form.completed);\r\n  }\r\n\r\n}",
  "sourcePath": "C:/Users/Alisa/FINALE/customer-registration/contracts/FormList.sol",
  "compiler": {
    "name": "solc",
    "version": "0.5.0+commit.1d4f565a.Emscripten.clang"
  },
  "schemaVersion": "3.0.1",
  "updatedAt": "2020-07-02T18:41:53.738Z",
  "devdoc": {
    "methods": {}
  },
  "userdoc": {
    "methods": {}
  }
}